{
  "contractName": "DecentralizedFileStorage",
  "abi": [
    {
      "anonymous": false,
      "inputs": [
        {
          "indexed": false,
          "internalType": "string",
          "name": "ipfsHash",
          "type": "string"
        },
        {
          "indexed": false,
          "internalType": "string",
          "name": "fileName",
          "type": "string"
        },
        {
          "indexed": false,
          "internalType": "uint256",
          "name": "fileSize",
          "type": "uint256"
        },
        {
          "indexed": false,
          "internalType": "uint256",
          "name": "uploadTime",
          "type": "uint256"
        },
        {
          "indexed": true,
          "internalType": "address",
          "name": "uploader",
          "type": "address"
        }
      ],
      "name": "FileAdded",
      "type": "event"
    },
    {
      "inputs": [
        {
          "internalType": "string",
          "name": "",
          "type": "string"
        }
      ],
      "name": "files",
      "outputs": [
        {
          "internalType": "string",
          "name": "ipfsHash",
          "type": "string"
        },
        {
          "internalType": "string",
          "name": "fileName",
          "type": "string"
        },
        {
          "internalType": "uint256",
          "name": "fileSize",
          "type": "uint256"
        },
        {
          "internalType": "uint256",
          "name": "uploadTime",
          "type": "uint256"
        },
        {
          "internalType": "address",
          "name": "uploader",
          "type": "address"
        }
      ],
      "stateMutability": "view",
      "type": "function"
    },
    {
      "inputs": [
        {
          "internalType": "string",
          "name": "_ipfsHash",
          "type": "string"
        },
        {
          "internalType": "string",
          "name": "_fileName",
          "type": "string"
        },
        {
          "internalType": "uint256",
          "name": "_fileSize",
          "type": "uint256"
        }
      ],
      "name": "addFile",
      "outputs": [],
      "stateMutability": "nonpayable",
      "type": "function"
    },
    {
      "inputs": [
        {
          "internalType": "string",
          "name": "_ipfsHash",
          "type": "string"
        }
      ],
      "name": "getFile",
      "outputs": [
        {
          "internalType": "string",
          "name": "ipfsHash",
          "type": "string"
        },
        {
          "internalType": "string",
          "name": "fileName",
          "type": "string"
        },
        {
          "internalType": "uint256",
          "name": "fileSize",
          "type": "uint256"
        },
        {
          "internalType": "uint256",
          "name": "uploadTime",
          "type": "uint256"
        },
        {
          "internalType": "address",
          "name": "uploader",
          "type": "address"
        }
      ],
      "stateMutability": "view",
      "type": "function"
    }
  ],
  "bytecode": "0x608060405234801561000f575f80fd5b5061105f8061001d5f395ff3fe608060405234801561000f575f80fd5b506004361061003f575f3560e01c80638cfeeef614610043578063e0876aa81461005f578063e775576114610093575b5f80fd5b61005d600480360381019061005891906108c1565b6100c7565b005b61007960048036038101906100749190610949565b610376565b60405161008a959493929190610a58565b60405180910390f35b6100ad60048036038101906100a89190610949565b6105cd565b6040516100be959493929190610a58565b60405180910390f35b5f83511161010a576040517f08c379a000000000000000000000000000000000000000000000000000000000815260040161010190610b01565b60405180910390fd5b5f82511161014d576040517f08c379a000000000000000000000000000000000000000000000000000000000815260040161014490610b69565b60405180910390fd5b5f811161018f576040517f08c379a000000000000000000000000000000000000000000000000000000000815260040161018690610bd1565b60405180910390fd5b5f73ffffffffffffffffffffffffffffffffffffffff165f846040516101b59190610c29565b90815260200160405180910390206004015f9054906101000a900473ffffffffffffffffffffffffffffffffffffffff1673ffffffffffffffffffffffffffffffffffffffff161461023c576040517f08c379a000000000000000000000000000000000000000000000000000000000815260040161023390610c89565b60405180910390fd5b6040518060a001604052808481526020018381526020018281526020014281526020013373ffffffffffffffffffffffffffffffffffffffff168152505f846040516102889190610c29565b90815260200160405180910390205f820151815f0190816102a99190610ea1565b5060208201518160010190816102bf9190610ea1565b5060408201518160020155606082015181600301556080820151816004015f6101000a81548173ffffffffffffffffffffffffffffffffffffffff021916908373ffffffffffffffffffffffffffffffffffffffff1602179055509050503373ffffffffffffffffffffffffffffffffffffffff167fe11cf9fe0eee7a4908b99e9112134a2ef66f1e8ebd751f66750fcc59263a061d848484426040516103699493929190610f70565b60405180910390a2505050565b6060805f805f805f8760405161038c9190610c29565b90815260200160405180910390206040518060a00160405290815f820180546103b490610cd4565b80601f01602080910402602001604051908101604052809291908181526020018280546103e090610cd4565b801561042b5780601f106104025761010080835404028352916020019161042b565b820191905f5260205f20905b81548152906001019060200180831161040e57829003601f168201915b5050505050815260200160018201805461044490610cd4565b80601f016020809104026020016040519081016040528092919081815260200182805461047090610cd4565b80156104bb5780601f10610492576101008083540402835291602001916104bb565b820191905f5260205f20905b81548152906001019060200180831161049e57829003601f168201915b505050505081526020016002820154815260200160038201548152602001600482015f9054906101000a900473ffffffffffffffffffffffffffffffffffffffff1673ffffffffffffffffffffffffffffffffffffffff1673ffffffffffffffffffffffffffffffffffffffff168152505090505f73ffffffffffffffffffffffffffffffffffffffff16816080015173ffffffffffffffffffffffffffffffffffffffff16036105a1576040517f08c379a00000000000000000000000000000000000000000000000000000000081526004016105989061100b565b60405180910390fd5b805f01518160200151826040015183606001518460800151955095509550955095505091939590929450565b5f818051602081018201805184825260208301602085012081835280955050505050505f91509050805f01805461060390610cd4565b80601f016020809104026020016040519081016040528092919081815260200182805461062f90610cd4565b801561067a5780601f106106515761010080835404028352916020019161067a565b820191905f5260205f20905b81548152906001019060200180831161065d57829003601f168201915b50505050509080600101805461068f90610cd4565b80601f01602080910402602001604051908101604052809291908181526020018280546106bb90610cd4565b80156107065780601f106106dd57610100808354040283529160200191610706565b820191905f5260205f20905b8154815290600101906020018083116106e957829003601f168201915b505050505090806002015490806003015490806004015f9054906101000a900473ffffffffffffffffffffffffffffffffffffffff16905085565b5f604051905090565b5f80fd5b5f80fd5b5f80fd5b5f80fd5b5f601f19601f8301169050919050565b7f4e487b71000000000000000000000000000000000000000000000000000000005f52604160045260245ffd5b6107a08261075a565b810181811067ffffffffffffffff821117156107bf576107be61076a565b5b80604052505050565b5f6107d1610741565b90506107dd8282610797565b919050565b5f67ffffffffffffffff8211156107fc576107fb61076a565b5b6108058261075a565b9050602081019050919050565b828183375f83830152505050565b5f61083261082d846107e2565b6107c8565b90508281526020810184848401111561084e5761084d610756565b5b610859848285610812565b509392505050565b5f82601f83011261087557610874610752565b5b8135610885848260208601610820565b91505092915050565b5f819050919050565b6108a08161088e565b81146108aa575f80fd5b50565b5f813590506108bb81610897565b92915050565b5f805f606084860312156108d8576108d761074a565b5b5f84013567ffffffffffffffff8111156108f5576108f461074e565b5b61090186828701610861565b935050602084013567ffffffffffffffff8111156109225761092161074e565b5b61092e86828701610861565b925050604061093f868287016108ad565b9150509250925092565b5f6020828403121561095e5761095d61074a565b5b5f82013567ffffffffffffffff81111561097b5761097a61074e565b5b61098784828501610861565b91505092915050565b5f81519050919050565b5f82825260208201905092915050565b5f5b838110156109c75780820151818401526020810190506109ac565b5f8484015250505050565b5f6109dc82610990565b6109e6818561099a565b93506109f68185602086016109aa565b6109ff8161075a565b840191505092915050565b610a138161088e565b82525050565b5f73ffffffffffffffffffffffffffffffffffffffff82169050919050565b5f610a4282610a19565b9050919050565b610a5281610a38565b82525050565b5f60a0820190508181035f830152610a7081886109d2565b90508181036020830152610a8481876109d2565b9050610a936040830186610a0a565b610aa06060830185610a0a565b610aad6080830184610a49565b9695505050505050565b7f49504653206861736820697320726571756972656400000000000000000000005f82015250565b5f610aeb60158361099a565b9150610af682610ab7565b602082019050919050565b5f6020820190508181035f830152610b1881610adf565b9050919050565b7f46696c65206e616d6520697320726571756972656400000000000000000000005f82015250565b5f610b5360158361099a565b9150610b5e82610b1f565b602082019050919050565b5f6020820190508181035f830152610b8081610b47565b9050919050565b7f46696c652073697a65206d7573742062652067726561746572207468616e20305f82015250565b5f610bbb60208361099a565b9150610bc682610b87565b602082019050919050565b5f6020820190508181035f830152610be881610baf565b9050919050565b5f81905092915050565b5f610c0382610990565b610c0d8185610bef565b9350610c1d8185602086016109aa565b80840191505092915050565b5f610c348284610bf9565b915081905092915050565b7f46696c6520616c726561647920657869737473000000000000000000000000005f82015250565b5f610c7360138361099a565b9150610c7e82610c3f565b602082019050919050565b5f6020820190508181035f830152610ca081610c67565b9050919050565b7f4e487b71000000000000000000000000000000000000000000000000000000005f52602260045260245ffd5b5f6002820490506001821680610ceb57607f821691505b602082108103610cfe57610cfd610ca7565b5b50919050565b5f819050815f5260205f209050919050565b5f6020601f8301049050919050565b5f82821b905092915050565b5f60088302610d607fffffffffffffffffffffffffffffffffffffffffffffffffffffffffffffffff82610d25565b610d6a8683610d25565b95508019841693508086168417925050509392505050565b5f819050919050565b5f610da5610da0610d9b8461088e565b610d82565b61088e565b9050919050565b5f819050919050565b610dbe83610d8b565b610dd2610dca82610dac565b848454610d31565b825550505050565b5f90565b610de6610dda565b610df1818484610db5565b505050565b5b81811015610e1457610e095f82610dde565b600181019050610df7565b5050565b601f821115610e5957610e2a81610d04565b610e3384610d16565b81016020851015610e42578190505b610e56610e4e85610d16565b830182610df6565b50505b505050565b5f82821c905092915050565b5f610e795f1984600802610e5e565b1980831691505092915050565b5f610e918383610e6a565b9150826002028217905092915050565b610eaa82610990565b67ffffffffffffffff811115610ec357610ec261076a565b5b610ecd8254610cd4565b610ed8828285610e18565b5f60209050601f831160018114610f09575f8415610ef7578287015190505b610f018582610e86565b865550610f68565b601f198416610f1786610d04565b5f5b82811015610f3e57848901518255600182019150602085019450602081019050610f19565b86831015610f5b5784890151610f57601f891682610e6a565b8355505b6001600288020188555050505b505050505050565b5f6080820190508181035f830152610f8881876109d2565b90508181036020830152610f9c81866109d2565b9050610fab6040830185610a0a565b610fb86060830184610a0a565b95945050505050565b7f46696c65206e6f7420666f756e640000000000000000000000000000000000005f82015250565b5f610ff5600e8361099a565b915061100082610fc1565b602082019050919050565b5f6020820190508181035f83015261102281610fe9565b905091905056fea26469706673582212202710ec0aeb706a287ead91107b2302638be93e6f51577d4ac3236f138b36c65564736f6c63430008150033",
  "immutableReferences": {},
  "source": "// SPDX-License-Identifier: MIT\r\npragma solidity ^0.8.0;\r\n\r\ncontract DecentralizedFileStorage {\r\n    \r\n    // Struct to hold file details\r\n    struct File {\r\n        string ipfsHash;  // IPFS hash (CID)\r\n        string fileName;  // Name of the file\r\n        uint256 fileSize; // Size of the file in bytes\r\n        uint256 uploadTime; // Timestamp when the file was uploaded\r\n        address uploader; // Address of the uploader\r\n    }\r\n\r\n    // Mapping from IPFS hash to file details\r\n    mapping(string => File) public files;\r\n\r\n    // Event for when a file is added\r\n    event FileAdded(\r\n        string ipfsHash,\r\n        string fileName,\r\n        uint256 fileSize,\r\n        uint256 uploadTime,\r\n        address indexed uploader\r\n    );\r\n\r\n    // Function to add a file\r\n    function addFile(string memory _ipfsHash, string memory _fileName, uint256 _fileSize) public {\r\n        require(bytes(_ipfsHash).length > 0, \"IPFS hash is required\");\r\n        require(bytes(_fileName).length > 0, \"File name is required\");\r\n        require(_fileSize > 0, \"File size must be greater than 0\");\r\n\r\n        // Check if the file already exists\r\n        require(files[_ipfsHash].uploader == address(0), \"File already exists\");\r\n\r\n        // Add file details to the mapping\r\n        files[_ipfsHash] = File({\r\n            ipfsHash: _ipfsHash,\r\n            fileName: _fileName,\r\n            fileSize: _fileSize,\r\n            uploadTime: block.timestamp,\r\n            uploader: msg.sender\r\n        });\r\n\r\n        // Emit an event when a file is added\r\n        emit FileAdded(_ipfsHash, _fileName, _fileSize, block.timestamp, msg.sender);\r\n    }\r\n\r\n    // Function to retrieve file details by IPFS hash\r\n    function getFile(string memory _ipfsHash) public view returns (\r\n        string memory ipfsHash,\r\n        string memory fileName,\r\n        uint256 fileSize,\r\n        uint256 uploadTime,\r\n        address uploader\r\n    ) {\r\n        File memory file = files[_ipfsHash];\r\n        require(file.uploader != address(0), \"File not found\");\r\n\r\n        return (\r\n            file.ipfsHash,\r\n            file.fileName,\r\n            file.fileSize,\r\n            file.uploadTime,\r\n            file.uploader\r\n        );\r\n    }\r\n}\r\n",
  "sourcePath": "C:\\Users\\kartik\\OneDrive\\Desktop\\solidity-app\\contracts\\DecentralizedFileStorage.sol",
  "compiler": {
    "name": "solc",
    "version": "0.8.21+commit.d9974bed.Emscripten.clang"
  },
  "schemaVersion": "3.4.16",
  "updatedAt": "2024-12-16T17:37:39.836Z",
  "devdoc": {
    "kind": "dev",
    "methods": {},
    "version": 1
  },
  "userdoc": {
    "kind": "user",
    "methods": {},
    "version": 1
  }
}