{
  "contractName": "FileStorage",
  "abi": [
    {
      "anonymous": false,
      "inputs": [
        {
          "indexed": true,
          "internalType": "address",
          "name": "user",
          "type": "address"
        },
        {
          "indexed": false,
          "internalType": "string",
          "name": "name",
          "type": "string"
        },
        {
          "indexed": false,
          "internalType": "string",
          "name": "ipfsHash",
          "type": "string"
        }
      ],
      "name": "FileDeleted",
      "type": "event"
    },
    {
      "anonymous": false,
      "inputs": [
        {
          "indexed": true,
          "internalType": "address",
          "name": "user",
          "type": "address"
        },
        {
          "indexed": false,
          "internalType": "string",
          "name": "name",
          "type": "string"
        },
        {
          "indexed": false,
          "internalType": "string",
          "name": "ipfsHash",
          "type": "string"
        }
      ],
      "name": "FileUploaded",
      "type": "event"
    },
    {
      "inputs": [
        {
          "internalType": "string",
          "name": "_name",
          "type": "string"
        },
        {
          "internalType": "string",
          "name": "_ipfsHash",
          "type": "string"
        }
      ],
      "name": "uploadFile",
      "outputs": [],
      "stateMutability": "nonpayable",
      "type": "function"
    },
    {
      "inputs": [],
      "name": "getFiles",
      "outputs": [
        {
          "components": [
            {
              "internalType": "string",
              "name": "name",
              "type": "string"
            },
            {
              "internalType": "string",
              "name": "ipfsHash",
              "type": "string"
            }
          ],
          "internalType": "struct FileStorage.File[]",
          "name": "",
          "type": "tuple[]"
        }
      ],
      "stateMutability": "view",
      "type": "function"
    },
    {
      "inputs": [
        {
          "internalType": "uint256",
          "name": "index",
          "type": "uint256"
        }
      ],
      "name": "deleteFile",
      "outputs": [],
      "stateMutability": "nonpayable",
      "type": "function"
    }
  ],
  "bytecode": "0x608060405234801561000f575f80fd5b506110f98061001d5f395ff3fe608060405234801561000f575f80fd5b506004361061003f575f3560e01c80632da96d7314610043578063996d50bf14610061578063c5b420061461007d575b5f80fd5b61004b610099565b6040516100589190610930565b60405180910390f35b61007b60048036038101906100769190610a8d565b61024e565b005b61009760048036038101906100929190610b36565b610345565b005b60605f803373ffffffffffffffffffffffffffffffffffffffff1673ffffffffffffffffffffffffffffffffffffffff1681526020019081526020015f20805480602002602001604051908101604052809291908181526020015f905b82821015610245578382905f5260205f2090600202016040518060400160405290815f8201805461012690610b8e565b80601f016020809104026020016040519081016040528092919081815260200182805461015290610b8e565b801561019d5780601f106101745761010080835404028352916020019161019d565b820191905f5260205f20905b81548152906001019060200180831161018057829003601f168201915b505050505081526020016001820180546101b690610b8e565b80601f01602080910402602001604051908101604052809291908181526020018280546101e290610b8e565b801561022d5780601f106102045761010080835404028352916020019161022d565b820191905f5260205f20905b81548152906001019060200180831161021057829003601f168201915b505050505081525050815260200190600101906100f6565b50505050905090565b5f803373ffffffffffffffffffffffffffffffffffffffff1673ffffffffffffffffffffffffffffffffffffffff1681526020019081526020015f20604051806040016040528084815260200183815250908060018154018082558091505060019003905f5260205f2090600202015f909190919091505f820151815f0190816102d89190610d5b565b5060208201518160010190816102ee9190610d5b565b5050503373ffffffffffffffffffffffffffffffffffffffff167f2f82310531f67ec4eae39b4f0d4e2ea9a5e6da4bb8f084adb414ec441b761c5d8383604051610339929190610e72565b60405180910390a25050565b5f803373ffffffffffffffffffffffffffffffffffffffff1673ffffffffffffffffffffffffffffffffffffffff1681526020019081526020015f208054905081106103c6576040517f08c379a00000000000000000000000000000000000000000000000000000000081526004016103bd90610ef1565b60405180910390fd5b5f805f3373ffffffffffffffffffffffffffffffffffffffff1673ffffffffffffffffffffffffffffffffffffffff1681526020019081526020015f20828154811061041557610414610f0f565b5b905f5260205f2090600202016040518060400160405290815f8201805461043b90610b8e565b80601f016020809104026020016040519081016040528092919081815260200182805461046790610b8e565b80156104b25780601f10610489576101008083540402835291602001916104b2565b820191905f5260205f20905b81548152906001019060200180831161049557829003601f168201915b505050505081526020016001820180546104cb90610b8e565b80601f01602080910402602001604051908101604052809291908181526020018280546104f790610b8e565b80156105425780601f1061051957610100808354040283529160200191610542565b820191905f5260205f20905b81548152906001019060200180831161052557829003601f168201915b50505050508152505090505f803373ffffffffffffffffffffffffffffffffffffffff1673ffffffffffffffffffffffffffffffffffffffff1681526020019081526020015f2060015f803373ffffffffffffffffffffffffffffffffffffffff1673ffffffffffffffffffffffffffffffffffffffff1681526020019081526020015f20805490506105d59190610f69565b815481106105e6576105e5610f0f565b5b905f5260205f2090600202015f803373ffffffffffffffffffffffffffffffffffffffff1673ffffffffffffffffffffffffffffffffffffffff1681526020019081526020015f2083815481106106405761063f610f0f565b5b905f5260205f2090600202015f8201815f01908161065e9190610fb1565b50600182018160010190816106739190610fb1565b509050505f803373ffffffffffffffffffffffffffffffffffffffff1673ffffffffffffffffffffffffffffffffffffffff1681526020019081526020015f208054806106c3576106c2611096565b5b600190038181905f5260205f2090600202015f8082015f6106e49190610752565b600182015f6106f39190610752565b505090553373ffffffffffffffffffffffffffffffffffffffff167f400192caa70069eaebb2fb57c3dfc7c36805a9c41d77b921bdb49803c6007706825f01518360200151604051610746929190610e72565b60405180910390a25050565b50805461075e90610b8e565b5f825580601f1061076f575061078c565b601f0160209004905f5260205f209081019061078b919061078f565b5b50565b5b808211156107a6575f815f905550600101610790565b5090565b5f81519050919050565b5f82825260208201905092915050565b5f819050602082019050919050565b5f81519050919050565b5f82825260208201905092915050565b5f5b8381101561080a5780820151818401526020810190506107ef565b5f8484015250505050565b5f601f19601f8301169050919050565b5f61082f826107d3565b61083981856107dd565b93506108498185602086016107ed565b61085281610815565b840191505092915050565b5f604083015f8301518482035f8601526108778282610825565b915050602083015184820360208601526108918282610825565b9150508091505092915050565b5f6108a9838361085d565b905092915050565b5f602082019050919050565b5f6108c7826107aa565b6108d181856107b4565b9350836020820285016108e3856107c4565b805f5b8581101561091e57848403895281516108ff858261089e565b945061090a836108b1565b925060208a019950506001810190506108e6565b50829750879550505050505092915050565b5f6020820190508181035f83015261094881846108bd565b905092915050565b5f604051905090565b5f80fd5b5f80fd5b5f80fd5b5f80fd5b7f4e487b71000000000000000000000000000000000000000000000000000000005f52604160045260245ffd5b61099f82610815565b810181811067ffffffffffffffff821117156109be576109bd610969565b5b80604052505050565b5f6109d0610950565b90506109dc8282610996565b919050565b5f67ffffffffffffffff8211156109fb576109fa610969565b5b610a0482610815565b9050602081019050919050565b828183375f83830152505050565b5f610a31610a2c846109e1565b6109c7565b905082815260208101848484011115610a4d57610a4c610965565b5b610a58848285610a11565b509392505050565b5f82601f830112610a7457610a73610961565b5b8135610a84848260208601610a1f565b91505092915050565b5f8060408385031215610aa357610aa2610959565b5b5f83013567ffffffffffffffff811115610ac057610abf61095d565b5b610acc85828601610a60565b925050602083013567ffffffffffffffff811115610aed57610aec61095d565b5b610af985828601610a60565b9150509250929050565b5f819050919050565b610b1581610b03565b8114610b1f575f80fd5b50565b5f81359050610b3081610b0c565b92915050565b5f60208284031215610b4b57610b4a610959565b5b5f610b5884828501610b22565b91505092915050565b7f4e487b71000000000000000000000000000000000000000000000000000000005f52602260045260245ffd5b5f6002820490506001821680610ba557607f821691505b602082108103610bb857610bb7610b61565b5b50919050565b5f819050815f5260205f209050919050565b5f6020601f8301049050919050565b5f82821b905092915050565b5f60088302610c1a7fffffffffffffffffffffffffffffffffffffffffffffffffffffffffffffffff82610bdf565b610c248683610bdf565b95508019841693508086168417925050509392505050565b5f819050919050565b5f610c5f610c5a610c5584610b03565b610c3c565b610b03565b9050919050565b5f819050919050565b610c7883610c45565b610c8c610c8482610c66565b848454610beb565b825550505050565b5f90565b610ca0610c94565b610cab818484610c6f565b505050565b5b81811015610cce57610cc35f82610c98565b600181019050610cb1565b5050565b601f821115610d1357610ce481610bbe565b610ced84610bd0565b81016020851015610cfc578190505b610d10610d0885610bd0565b830182610cb0565b50505b505050565b5f82821c905092915050565b5f610d335f1984600802610d18565b1980831691505092915050565b5f610d4b8383610d24565b9150826002028217905092915050565b610d64826107d3565b67ffffffffffffffff811115610d7d57610d7c610969565b5b610d878254610b8e565b610d92828285610cd2565b5f60209050601f831160018114610dc3575f8415610db1578287015190505b610dbb8582610d40565b865550610e22565b601f198416610dd186610bbe565b5f5b82811015610df857848901518255600182019150602085019450602081019050610dd3565b86831015610e155784890151610e11601f891682610d24565b8355505b6001600288020188555050505b505050505050565b5f82825260208201905092915050565b5f610e44826107d3565b610e4e8185610e2a565b9350610e5e8185602086016107ed565b610e6781610815565b840191505092915050565b5f6040820190508181035f830152610e8a8185610e3a565b90508181036020830152610e9e8184610e3a565b90509392505050565b7f496e76616c696420696e646578000000000000000000000000000000000000005f82015250565b5f610edb600d83610e2a565b9150610ee682610ea7565b602082019050919050565b5f6020820190508181035f830152610f0881610ecf565b9050919050565b7f4e487b71000000000000000000000000000000000000000000000000000000005f52603260045260245ffd5b7f4e487b71000000000000000000000000000000000000000000000000000000005f52601160045260245ffd5b5f610f7382610b03565b9150610f7e83610b03565b9250828203905081811115610f9657610f95610f3c565b5b92915050565b5f81549050610faa81610b8e565b9050919050565b818103610fbf575050611094565b610fc882610f9c565b67ffffffffffffffff811115610fe157610fe0610969565b5b610feb8254610b8e565b610ff6828285610cd2565b5f601f831160018114611023575f8415611011578287015490505b61101b8582610d40565b86555061108d565b601f19841661103187610bbe565b965061103c86610bbe565b5f5b828110156110635784890154825560018201915060018501945060208101905061103e565b86831015611080578489015461107c601f891682610d24565b8355505b6001600288020188555050505b5050505050505b565b7f4e487b71000000000000000000000000000000000000000000000000000000005f52603160045260245ffdfea26469706673582212203741aea8703b463651bf9f676413f3dd3e5aa4dd50a2b1e39273bad77ea7c13064736f6c63430008150033",
  "immutableReferences": {},
  "source": "// SPDX-License-Identifier: MIT\r\npragma solidity ^0.8.19;\r\n\r\ncontract FileStorage {\r\n    struct File {\r\n        string name; // File name\r\n        string ipfsHash; // IPFS hash of the file\r\n    }\r\n\r\n    mapping(address => File[]) private userFiles;\r\n\r\n    event FileUploaded(address indexed user, string name, string ipfsHash);\r\n    event FileDeleted(address indexed user, string name, string ipfsHash);\r\n\r\n    function uploadFile(string memory _name, string memory _ipfsHash) public {\r\n        userFiles[msg.sender].push(File(_name, _ipfsHash));\r\n        emit FileUploaded(msg.sender, _name, _ipfsHash);\r\n    }\r\n\r\n    function getFiles() public view returns (File[] memory) {\r\n        return userFiles[msg.sender];\r\n    }\r\n\r\n    function deleteFile(uint256 index) public {\r\n        require(index < userFiles[msg.sender].length, \"Invalid index\");\r\n\r\n        File memory file = userFiles[msg.sender][index];\r\n        userFiles[msg.sender][index] = userFiles[msg.sender][userFiles[msg.sender].length - 1];\r\n        userFiles[msg.sender].pop();\r\n\r\n        emit FileDeleted(msg.sender, file.name, file.ipfsHash);\r\n    }\r\n}",
  "sourcePath": "C:\\Users\\kartik\\OneDrive\\Desktop\\solidity-app\\contracts\\FileStorage.sol",
  "compiler": {
    "name": "solc",
    "version": "0.8.21+commit.d9974bed.Emscripten.clang"
  },
  "schemaVersion": "3.4.16",
  "updatedAt": "2024-12-16T16:58:34.421Z",
  "devdoc": {
    "kind": "dev",
    "methods": {},
    "version": 1
  },
  "userdoc": {
    "kind": "user",
    "methods": {},
    "version": 1
  }
}